:100000000C9461000C947E000C947E000C947E0095
:100010000C947E000C947E000C947E000C947E0068
:100020000C947E000C947E000C947E000C947E0058
:100030000C947E000C947E000C947E000C947E0048
:100040000C9494010C947E000C947E000C947E0021
:100050000C947E000C947E000C947E000C947E0028
:100060000C947E000C947E00000000002400270009
:100070002A0000000000250028002B0000000000DE
:1000800023002600290004040404040404040202DA
:100090000202020203030303030301020408102007
:1000A0004080010204081020010204081020000012
:1000B0000008000201000003040700000000000027
:1000C000000011241FBECFEFD8E0DEBFCDBF11E08E
:1000D000A0E0B1E0E0EDF6E002C005900D92A030A6
:1000E000B107D9F721E0A0E0B1E001C01D92AD3029
:1000F000B207E1F70E94DE010C9466030C94000045
:10010000833081F028F4813099F08230A1F0089595
:100110008730A9F08830B9F08430D1F48091800024
:100120008F7D03C0809180008F7780938000089539
:1001300084B58F7702C084B58F7D84BD089580918A
:10014000B0008F7703C08091B0008F7D8093B000A6
:100150000895CF93DF93E2EBF0E08491EEE9F0E0D5
:10016000D491EAE8F0E0C491CC2391F081110E948F
:100170008000EC2FF0E0EE0FFF1FE458FF4FA59139
:10018000B491EC91ED2381E090E021F480E002C095
:1001900080E090E0DF91CF9108951F93CF93DF939C
:1001A000282F30E0F901E255FF4F8491F901E6561E
:1001B000FF4FD491F901EA57FF4FC491CC23C1F00E
:1001C000162F81110E948000EC2FF0E0EE0FFF1F30
:1001D000EE58FF4FA591B4919FB7F894111104C048
:1001E0008C91D095D82302C0EC91DE2BDC939FBF7D
:1001F000DF91CF911F910895CF93DF9390E0FC01A1
:10020000E656FF4F2491FC01EA57FF4F8491882363
:1002100061F190E0880F991FFC01E859FF4FC591EB
:10022000D491FC01EE58FF4FA591B491611109C022
:100230009FB7F8948881209582238883EC912E23A0
:100240000BC0623061F49FB7F8948881322F3095EB
:1002500083238883EC912E2B2C939FBF06C08FB7EE
:10026000F894E8812E2B28838FBFDF91CF910895DA
:100270003FB7F8948091090190910A01A0910B0178
:10028000B0910C0126B5A89B05C02F3F19F001962F
:10029000A11DB11D3FBFBA2FA92F982F8827820F0C
:1002A000911DA11DB11DBC01CD0142E0660F771F5C
:1002B000881F991F4A95D1F708958F929F92AF9208
:1002C000BF92CF92DF92EF92FF920E9438014B01D2
:1002D0005C0184E1C82ED12CE12CF12C0E94380164
:1002E000DC01CB0188199909AA09BB09883E934012
:1002F000A105B10598F321E0C21AD108E108F1087F
:1003000088EE880E83E0981EA11CB11CC114D10494
:10031000E104F10419F7FF90EF90DF90CF90BF90C8
:10032000AF909F908F9008951F920F920FB60F92EB
:1003300011242F933F938F939F93AF93BF938091FB
:10034000050190910601A0910701B091080130913B
:10035000040123E0230F2D3720F40196A11DB11DC8
:1003600005C026E8230F0296A11DB11D20930401AC
:100370008093050190930601A0930701B0930801B3
:100380008091090190910A01A0910B01B0910C019B
:100390000196A11DB11D8093090190930A01A093BC
:1003A0000B01B0930C01BF91AF919F918F913F9141
:1003B0002F910F900FBE0F901F901895789484B5D1
:1003C000826084BD84B5816084BD85B5826085BD51
:1003D00085B5816085BD80916E00816080936E00DF
:1003E00010928100809181008260809381008091D1
:1003F0008100816080938100809180008160809382
:1004000080008091B10084608093B1008091B00041
:1004100081608093B00080917A00846080937A003C
:1004200080917A00826080937A0080917A00816066
:1004300080937A0080917A00806880937A0010928D
:10044000C10061E089E00E94FC0061E086E00E945A
:10045000FC0061E087E00E94FC0060E084E00E9414
:10046000FC0060E086E00E94CD0061E087E00E9431
:10047000CD0044244A9483E0582E612C712C97EBD4
:10048000E92E90E0F92E20E0C22E20E0D22ED0E41A
:10049000AA24A394B12CD0937C0080917A0080642C
:1004A00080937A0080917A0086FDFCCFA09178003D
:1004B00080917900B0E0B82B2FEF30E00E945F030D
:1004C000A30192010E940F03C22F932E022F132F1C
:1004D00061E089E00E94FC000115110511F460E063
:1004E00004C00F3F110529F461E089E00E94CD00AE
:1004F00046C0F7018491833009F148F48130C9F096
:100500008230C1F584B5806284BDC8BD38C08730F3
:1005100009F1883039F1843069F58091800080627A
:10052000809380008C2F992D90938B0080938A006C
:1005300026C084B5806884BDC7BD21C0809180007D
:100540008068809380008C2F992D909389008093F0
:10055000880015C08091B00080688093B000C0937F
:10056000B3000DC08091B00080628093B000C09352
:10057000B40005C0003811050CF0B6CFB0CF0E9412
:10058000A900019771F481E090E02091020130917F
:100590000301232B11F080E090E0909303018093FE
:1005A00002010E94A9000197E1F30E945D01009100
:1005B0000201109103018091000190910101892BAA
:1005C00089F40130110571F461E086E00E94CD00EC
:1005D00060E087E00E94CD00B0920101A09200018E
:1005E0000E945D018091000190910101019781F4C9
:1005F000012B71F460E086E00E94CD0061E087E0AD
:100600000E94CD0010920101109200010E945D0134
:10061000C114D10409F43FCF0E9400003CCF052E45
:1006200097FB1EF400940E94260357FD07D00E94FA
:100630002E0307FC03D04EF40C94260350954095EE
:10064000309521953F4F4F4F5F4F0895909580957E
:10065000709561957F4F8F4F9F4F0895A1E21A2E9D
:10066000AA1BBB1BFD010DC0AA1FBB1FEE1FFF1F56
:10067000A217B307E407F50720F0A21BB30BE40BA6
:10068000F50B661F771F881F991F1A9469F76095ED
:100690007095809590959B01AC01BD01CF010895A7
:1006A000A29FB001B39FC001A39F700D811D1124B3
:1006B000911DB29F700D811D1124911D08950E94FE
:1006C0005003B7FF0895821B930B0895F894FFCF52
:107E0000112484B714BE81FFF0D085E080938100F7
:107E100082E08093C00088E18093C10086E0809377
:107E2000C20080E18093C4008EE0C9D0259A86E02C
:107E300020E33CEF91E0309385002093840096BBD3
:107E4000B09BFECF1D9AA8958150A9F7CC24DD24C4
:107E500088248394B5E0AB2EA1E19A2EF3E0BF2EE7
:107E6000A2D0813461F49FD0082FAFD0023811F036
:107E7000013811F484E001C083E08DD089C08234E0
:107E800011F484E103C0853419F485E0A6D080C0E4
:107E9000853579F488D0E82EFF2485D0082F10E0AE
:107EA000102F00270E291F29000F111F8ED06801E7
:107EB0006FC0863521F484E090D080E0DECF843638
:107EC00009F040C070D06FD0082F6DD080E0C81688
:107ED00080E7D80618F4F601B7BEE895C0E0D1E017
:107EE00062D089930C17E1F7F0E0CF16F0E7DF06D8
:107EF00018F0F601B7BEE89568D007B600FCFDCFD4
:107F0000A601A0E0B1E02C9130E011968C91119780
:107F100090E0982F8827822B932B1296FA010C0160
:107F200087BEE89511244E5F5F4FF1E0A038BF0790
:107F300051F7F601A7BEE89507B600FCFDCF97BE46
:107F4000E89526C08437B1F42ED02DD0F82E2BD052
:107F50003CD0F601EF2C8F010F5F1F4F84911BD097
:107F6000EA94F801C1F70894C11CD11CFA94CF0C13
:107F7000D11C0EC0853739F428D08EE10CD085E9AC
:107F80000AD08FE07ACF813511F488E018D01DD067
:107F900080E101D065CF982F8091C00085FFFCCF94
:107FA0009093C60008958091C00087FFFCCF809118
:107FB000C00084FD01C0A8958091C6000895E0E648
:107FC000F0E098E1908380830895EDDF803219F02E
:107FD00088E0F5DFFFCF84E1DECF1F93182FE3DFCA
:107FE0001150E9F7F2DF1F91089580E0E8DFEE27F6
:047FF000FF270994CA
:027FFE00040479
:0400000300007E007B
:00000001FF
